:100187000080004000200010000800040002000169
:060129008BA07F647E0044
:10012F00D3EF9400EE648094804015E4FDFC0DBD88
:10013F0000010CED64644C70F5EF1F70E31E80E05E
:01014F00228D
:100150007B807A00900000120129EAA2E713FAEBF3
:0B01600013FBA3E5826408458370ECEC
:01016B002271
:10016C007B017A00900000120129EB25E0FBEA33B9
:0A017C00FAA3E5826408458370EDE4
:010186002256
:1000F90078087C007D007BFF7A0179877E007F107C
:100109001200D3E4FBFAEB25E02408F808E6F5A091
:1001190012012B0BBB00010AEB64094A70E880E36A
:0801A30012015012016C80F8FA
:0300000002019763
:0C019700787FE4F6D8FD7581170201A303
:10000300E709F608DFFA8046E709F208DFFA803EDF
:1000130088828C83E709F0A3DFFA8032E309F608CC
:10002300DFFA8078E309F208DFFA807088828C8334
:10003300E309F0A3DFFA806489828A83E0A3F608E8
:10004300DFFA805889828A83E0A3F208DFFA804CC2
:1000530080D280FA80C680D4806980F28033801099
:1000630080A680EA809A80A880DA80E280CA803302
:1000730089828A83ECFAE493A3C8C582C8CCC5837A
:10008300CCF0A3C8C582C8CCC583CCDFE9DEE7804A
:100093000D89828A83E493A3F608DFF9ECFAA9F0C9
:1000A300EDFB2289828A83ECFAE0A3C8C582C8CC1F
:1000B300C583CCF0A3C8C582C8CCC583CCDFEADE38
:1000C300E880DB89828A83E493A3F208DFF980CC9A
:1000D30088F0EF60010E4E60C388F0ED2402B40493
:1000E3000050B9F582EB2402B4040050AF2323453A
:0600F3008223900053730C
:00000001FF
