:0800E90002080001020A0000F8
:1000D900758901758CB1758AE0D2A9D2AFD28C220B
:0400F2008509A022BA
:080003001200D91200F280FB8B
:03000B0002009A56
:10009A00C0E0C0D0758CB1758AE0050BE50B700223
:1000AA00050A6432450A7022F50AF50BE50925E0CE
:1000BA00F509E50833F508D3E5099480E508648075
:0F00CA0094804006750800750901D0D0D0E0324F
:0300000002000EED
:0C000E00787FE4F6D8FD75810B020055E8
:10001A00020003E493A3F8E493A34003F68001F2F9
:10002A0008DFF48029E493A3F85407240CC8C333E7
:10003A00C4540F4420C8834004F456800146F6DFB6
:10004A00E4800B01020408102040809000E9E47E5D
:10005A00019360BCA3FF543F30E509541FFEE493AB
:10006A00A360010ECF54C025E060A840B8E493A372
:10007A00FAE493A3F8E493A3C8C582C8CAC583CA9D
:10008A00F0A3C8C582C8CAC583CADFE9DEE780BE55
:0100F100000E
:00000001FF
